{
  "_format": "hh-sol-artifact-1",
  "contractName": "PropertyPlace",
  "sourceName": "src/backend/contracts/PropertyPlace.sol",
  "abi": [
    {
      "inputs": [],
      "stateMutability": "nonpayable",
      "type": "constructor"
    },
    {
      "inputs": [
        {
          "internalType": "uint256",
          "name": "id",
          "type": "uint256"
        }
      ],
      "name": "AlreadyOnSale",
      "type": "error"
    },
    {
      "inputs": [
        {
          "internalType": "address",
          "name": "account",
          "type": "address"
        }
      ],
      "name": "HasZeroAddress",
      "type": "error"
    },
    {
      "inputs": [
        {
          "internalType": "uint256",
          "name": "availableBalance",
          "type": "uint256"
        },
        {
          "internalType": "uint256",
          "name": "requiredBalance",
          "type": "uint256"
        }
      ],
      "name": "InsufficientBalance",
      "type": "error"
    },
    {
      "inputs": [
        {
          "internalType": "uint256",
          "name": "tokenId",
          "type": "uint256"
        }
      ],
      "name": "InvalidId",
      "type": "error"
    },
    {
      "inputs": [
        {
          "internalType": "uint256",
          "name": "price",
          "type": "uint256"
        }
      ],
      "name": "InvalidPrice",
      "type": "error"
    },
    {
      "inputs": [
        {
          "internalType": "address",
          "name": "availableAddress",
          "type": "address"
        },
        {
          "internalType": "address",
          "name": "requiredAddress",
          "type": "address"
        }
      ],
      "name": "IsNotOwner",
      "type": "error"
    },
    {
      "inputs": [
        {
          "internalType": "uint256",
          "name": "id",
          "type": "uint256"
        }
      ],
      "name": "NotOnSale",
      "type": "error"
    },
    {
      "inputs": [
        {
          "internalType": "address",
          "name": "owner",
          "type": "address"
        }
      ],
      "name": "UnauthorizedBuyer",
      "type": "error"
    },
    {
      "anonymous": false,
      "inputs": [
        {
          "indexed": true,
          "internalType": "address",
          "name": "owner",
          "type": "address"
        },
        {
          "indexed": true,
          "internalType": "address",
          "name": "approved",
          "type": "address"
        },
        {
          "indexed": true,
          "internalType": "uint256",
          "name": "tokenId",
          "type": "uint256"
        }
      ],
      "name": "Approval",
      "type": "event"
    },
    {
      "anonymous": false,
      "inputs": [
        {
          "indexed": true,
          "internalType": "address",
          "name": "owner",
          "type": "address"
        },
        {
          "indexed": true,
          "internalType": "address",
          "name": "operator",
          "type": "address"
        },
        {
          "indexed": false,
          "internalType": "bool",
          "name": "approved",
          "type": "bool"
        }
      ],
      "name": "ApprovalForAll",
      "type": "event"
    },
    {
      "anonymous": false,
      "inputs": [
        {
          "indexed": false,
          "internalType": "uint256",
          "name": "tokenId",
          "type": "uint256"
        },
        {
          "indexed": false,
          "internalType": "uint256",
          "name": "price",
          "type": "uint256"
        },
        {
          "indexed": true,
          "internalType": "address",
          "name": "seller",
          "type": "address"
        },
        {
          "indexed": true,
          "internalType": "address",
          "name": "buyer",
          "type": "address"
        }
      ],
      "name": "Bought",
      "type": "event"
    },
    {
      "anonymous": false,
      "inputs": [
        {
          "indexed": false,
          "internalType": "uint256",
          "name": "tokenId",
          "type": "uint256"
        },
        {
          "indexed": false,
          "internalType": "uint256",
          "name": "price",
          "type": "uint256"
        },
        {
          "indexed": true,
          "internalType": "address",
          "name": "creator",
          "type": "address"
        }
      ],
      "name": "Offered",
      "type": "event"
    },
    {
      "anonymous": false,
      "inputs": [
        {
          "indexed": true,
          "internalType": "address",
          "name": "previousOwner",
          "type": "address"
        },
        {
          "indexed": true,
          "internalType": "address",
          "name": "newOwner",
          "type": "address"
        }
      ],
      "name": "OwnershipTransferred",
      "type": "event"
    },
    {
      "anonymous": false,
      "inputs": [
        {
          "indexed": false,
          "internalType": "address",
          "name": "account",
          "type": "address"
        }
      ],
      "name": "Paused",
      "type": "event"
    },
    {
      "anonymous": false,
      "inputs": [
        {
          "indexed": false,
          "internalType": "uint256",
          "name": "tokenId",
          "type": "uint256"
        },
        {
          "indexed": false,
          "internalType": "uint256",
          "name": "price",
          "type": "uint256"
        },
        {
          "indexed": true,
          "internalType": "address",
          "name": "owner",
          "type": "address"
        }
      ],
      "name": "PutOnpurchase",
      "type": "event"
    },
    {
      "anonymous": false,
      "inputs": [
        {
          "indexed": true,
          "internalType": "address",
          "name": "from",
          "type": "address"
        },
        {
          "indexed": true,
          "internalType": "address",
          "name": "to",
          "type": "address"
        },
        {
          "indexed": true,
          "internalType": "uint256",
          "name": "tokenId",
          "type": "uint256"
        }
      ],
      "name": "Transfer",
      "type": "event"
    },
    {
      "anonymous": false,
      "inputs": [
        {
          "indexed": false,
          "internalType": "address",
          "name": "account",
          "type": "address"
        }
      ],
      "name": "Unpaused",
      "type": "event"
    },
    {
      "inputs": [],
      "name": "_tokenIds",
      "outputs": [
        {
          "internalType": "uint256",
          "name": "_value",
          "type": "uint256"
        }
      ],
      "stateMutability": "view",
      "type": "function"
    },
    {
      "inputs": [
        {
          "internalType": "address",
          "name": "to",
          "type": "address"
        },
        {
          "internalType": "uint256",
          "name": "tokenId",
          "type": "uint256"
        }
      ],
      "name": "approve",
      "outputs": [],
      "stateMutability": "nonpayable",
      "type": "function"
    },
    {
      "inputs": [
        {
          "internalType": "address",
          "name": "owner",
          "type": "address"
        }
      ],
      "name": "balanceOf",
      "outputs": [
        {
          "internalType": "uint256",
          "name": "",
          "type": "uint256"
        }
      ],
      "stateMutability": "view",
      "type": "function"
    },
    {
      "inputs": [
        {
          "internalType": "uint256",
          "name": "tokenId",
          "type": "uint256"
        }
      ],
      "name": "getApproved",
      "outputs": [
        {
          "internalType": "address",
          "name": "",
          "type": "address"
        }
      ],
      "stateMutability": "view",
      "type": "function"
    },
    {
      "inputs": [
        {
          "internalType": "address",
          "name": "owner",
          "type": "address"
        },
        {
          "internalType": "address",
          "name": "operator",
          "type": "address"
        }
      ],
      "name": "isApprovedForAll",
      "outputs": [
        {
          "internalType": "bool",
          "name": "",
          "type": "bool"
        }
      ],
      "stateMutability": "view",
      "type": "function"
    },
    {
      "inputs": [],
      "name": "name",
      "outputs": [
        {
          "internalType": "string",
          "name": "",
          "type": "string"
        }
      ],
      "stateMutability": "view",
      "type": "function"
    },
    {
      "inputs": [],
      "name": "owner",
      "outputs": [
        {
          "internalType": "address",
          "name": "",
          "type": "address"
        }
      ],
      "stateMutability": "view",
      "type": "function"
    },
    {
      "inputs": [
        {
          "internalType": "uint256",
          "name": "tokenId",
          "type": "uint256"
        }
      ],
      "name": "ownerOf",
      "outputs": [
        {
          "internalType": "address",
          "name": "",
          "type": "address"
        }
      ],
      "stateMutability": "view",
      "type": "function"
    },
    {
      "inputs": [],
      "name": "paused",
      "outputs": [
        {
          "internalType": "bool",
          "name": "",
          "type": "bool"
        }
      ],
      "stateMutability": "view",
      "type": "function"
    },
    {
      "inputs": [
        {
          "internalType": "uint256",
          "name": "",
          "type": "uint256"
        }
      ],
      "name": "properties",
      "outputs": [
        {
          "internalType": "uint256",
          "name": "tokenId",
          "type": "uint256"
        },
        {
          "internalType": "uint256",
          "name": "price",
          "type": "uint256"
        },
        {
          "internalType": "address payable",
          "name": "creator",
          "type": "address"
        },
        {
          "internalType": "bool",
          "name": "sold",
          "type": "bool"
        }
      ],
      "stateMutability": "view",
      "type": "function"
    },
    {
      "inputs": [
        {
          "internalType": "uint256",
          "name": "_tokenID",
          "type": "uint256"
        }
      ],
      "name": "purchaseProperty",
      "outputs": [],
      "stateMutability": "payable",
      "type": "function"
    },
    {
      "inputs": [
        {
          "internalType": "uint256",
          "name": "_tokenID",
          "type": "uint256"
        },
        {
          "internalType": "uint256",
          "name": "_updatedPrice",
          "type": "uint256"
        }
      ],
      "name": "putOnSale",
      "outputs": [],
      "stateMutability": "nonpayable",
      "type": "function"
    },
    {
      "inputs": [
        {
          "internalType": "string",
          "name": "tokenURI",
          "type": "string"
        },
        {
          "internalType": "uint256",
          "name": "_price",
          "type": "uint256"
        }
      ],
      "name": "registerProperty",
      "outputs": [],
      "stateMutability": "nonpayable",
      "type": "function"
    },
    {
      "inputs": [],
      "name": "renounceOwnership",
      "outputs": [],
      "stateMutability": "nonpayable",
      "type": "function"
    },
    {
      "inputs": [
        {
          "internalType": "address",
          "name": "from",
          "type": "address"
        },
        {
          "internalType": "address",
          "name": "to",
          "type": "address"
        },
        {
          "internalType": "uint256",
          "name": "tokenId",
          "type": "uint256"
        }
      ],
      "name": "safeTransferFrom",
      "outputs": [],
      "stateMutability": "nonpayable",
      "type": "function"
    },
    {
      "inputs": [
        {
          "internalType": "address",
          "name": "from",
          "type": "address"
        },
        {
          "internalType": "address",
          "name": "to",
          "type": "address"
        },
        {
          "internalType": "uint256",
          "name": "tokenId",
          "type": "uint256"
        },
        {
          "internalType": "bytes",
          "name": "_data",
          "type": "bytes"
        }
      ],
      "name": "safeTransferFrom",
      "outputs": [],
      "stateMutability": "nonpayable",
      "type": "function"
    },
    {
      "inputs": [
        {
          "internalType": "address",
          "name": "operator",
          "type": "address"
        },
        {
          "internalType": "bool",
          "name": "approved",
          "type": "bool"
        }
      ],
      "name": "setApprovalForAll",
      "outputs": [],
      "stateMutability": "nonpayable",
      "type": "function"
    },
    {
      "inputs": [
        {
          "internalType": "bytes4",
          "name": "interfaceId",
          "type": "bytes4"
        }
      ],
      "name": "supportsInterface",
      "outputs": [
        {
          "internalType": "bool",
          "name": "",
          "type": "bool"
        }
      ],
      "stateMutability": "view",
      "type": "function"
    },
    {
      "inputs": [],
      "name": "symbol",
      "outputs": [
        {
          "internalType": "string",
          "name": "",
          "type": "string"
        }
      ],
      "stateMutability": "view",
      "type": "function"
    },
    {
      "inputs": [
        {
          "internalType": "uint256",
          "name": "tokenId",
          "type": "uint256"
        }
      ],
      "name": "tokenURI",
      "outputs": [
        {
          "internalType": "string",
          "name": "",
          "type": "string"
        }
      ],
      "stateMutability": "view",
      "type": "function"
    },
    {
      "inputs": [
        {
          "internalType": "address",
          "name": "from",
          "type": "address"
        },
        {
          "internalType": "address",
          "name": "to",
          "type": "address"
        },
        {
          "internalType": "uint256",
          "name": "tokenId",
          "type": "uint256"
        }
      ],
      "name": "transferFrom",
      "outputs": [],
      "stateMutability": "nonpayable",
      "type": "function"
    },
    {
      "inputs": [
        {
          "internalType": "address",
          "name": "newOwner",
          "type": "address"
        }
      ],
      "name": "transferOwnership",
      "outputs": [],
      "stateMutability": "nonpayable",
      "type": "function"
    }
  ],
  "bytecode": "0x60806040523480156200001157600080fd5b506040518060400160405280600b81526020017f4d61726b6574506c6163650000000000000000000000000000000000000000008152506040518060400160405280600381526020017f4e46540000000000000000000000000000000000000000000000000000000000815250816000908051906020019062000096929190620001c1565b508060019080519060200190620000af929190620001c1565b505050620000d2620000c6620000f360201b60201c565b620000fb60201b60201c565b6000600760146101000a81548160ff021916908315150217905550620002d6565b600033905090565b6000600760009054906101000a900473ffffffffffffffffffffffffffffffffffffffff16905081600760006101000a81548173ffffffffffffffffffffffffffffffffffffffff021916908373ffffffffffffffffffffffffffffffffffffffff1602179055508173ffffffffffffffffffffffffffffffffffffffff168173ffffffffffffffffffffffffffffffffffffffff167f8be0079c531659141344cd1fd0a4f28419497f9722a3daafe3b4186f6b6457e060405160405180910390a35050565b828054620001cf9062000271565b90600052602060002090601f016020900481019282620001f357600085556200023f565b82601f106200020e57805160ff19168380011785556200023f565b828001600101855582156200023f579182015b828111156200023e57825182559160200191906001019062000221565b5b5090506200024e919062000252565b5090565b5b808211156200026d57600081600090555060010162000253565b5090565b600060028204905060018216806200028a57607f821691505b60208210811415620002a157620002a0620002a7565b5b50919050565b7f4e487b7100000000000000000000000000000000000000000000000000000000600052602260045260246000fd5b613ab680620002e66000396000f3fe6080604052600436106101355760003560e01c806379d9c439116100ab578063aa46a4001161006f578063aa46a40014610403578063b88d4fde1461042e578063c87b56dd14610457578063e985e9c514610494578063f2fde38b146104d1578063f7b10808146104fa57610135565b806379d9c4391461033f5780637c5397181461035b5780638da5cb5b1461038457806395d89b41146103af578063a22cb465146103da57610135565b806336f7992b116100fd57806336f7992b1461023157806342842e0e1461025a5780635c975abb146102835780636352211e146102ae57806370a08231146102eb578063715018a61461032857610135565b806301ffc9a71461013a57806306fdde0314610177578063081812fc146101a2578063095ea7b3146101df57806323b872dd14610208575b600080fd5b34801561014657600080fd5b50610161600480360381019061015c91906128b1565b61053a565b60405161016e9190612de8565b60405180910390f35b34801561018357600080fd5b5061018c61061c565b6040516101999190612e03565b60405180910390f35b3480156101ae57600080fd5b506101c960048036038101906101c49190612957565b6106ae565b6040516101d69190612d58565b60405180910390f35b3480156101eb57600080fd5b5061020660048036038101906102019190612875565b610733565b005b34801561021457600080fd5b5061022f600480360381019061022a919061276f565b61084b565b005b34801561023d57600080fd5b5061025860048036038101906102539190612980565b6108ab565b005b34801561026657600080fd5b50610281600480360381019061027c919061276f565b610b34565b005b34801561028f57600080fd5b50610298610b54565b6040516102a59190612de8565b60405180910390f35b3480156102ba57600080fd5b506102d560048036038101906102d09190612957565b610b6b565b6040516102e29190612d58565b60405180910390f35b3480156102f757600080fd5b50610312600480360381019061030d919061270a565b610c1d565b60405161031f9190613085565b60405180910390f35b34801561033457600080fd5b5061033d610cd5565b005b61035960048036038101906103549190612957565b610d5d565b005b34801561036757600080fd5b50610382600480360381019061037d9190612903565b6110a4565b005b34801561039057600080fd5b506103996112a7565b6040516103a69190612d58565b60405180910390f35b3480156103bb57600080fd5b506103c46112d1565b6040516103d19190612e03565b60405180910390f35b3480156103e657600080fd5b5061040160048036038101906103fc9190612839565b611363565b005b34801561040f57600080fd5b50610418611379565b6040516104259190613085565b60405180910390f35b34801561043a57600080fd5b50610455600480360381019061045091906127be565b611385565b005b34801561046357600080fd5b5061047e60048036038101906104799190612957565b6113e7565b60405161048b9190612e03565b60405180910390f35b3480156104a057600080fd5b506104bb60048036038101906104b69190612733565b611539565b6040516104c89190612de8565b60405180910390f35b3480156104dd57600080fd5b506104f860048036038101906104f3919061270a565b6115cd565b005b34801561050657600080fd5b50610521600480360381019061051c9190612957565b6116c5565b60405161053194939291906130c9565b60405180910390f35b60007f80ac58cd000000000000000000000000000000000000000000000000000000007bffffffffffffffffffffffffffffffffffffffffffffffffffffffff1916827bffffffffffffffffffffffffffffffffffffffffffffffffffffffff1916148061060557507f5b5e139f000000000000000000000000000000000000000000000000000000007bffffffffffffffffffffffffffffffffffffffffffffffffffffffff1916827bffffffffffffffffffffffffffffffffffffffffffffffffffffffff1916145b80610615575061061482611722565b5b9050919050565b60606000805461062b9061335b565b80601f01602080910402602001604051908101604052809291908181526020018280546106579061335b565b80156106a45780601f10610679576101008083540402835291602001916106a4565b820191906000526020600020905b81548152906001019060200180831161068757829003601f168201915b5050505050905090565b60006106b98261178c565b6106f8576040517f08c379a00000000000000000000000000000000000000000000000000000000081526004016106ef90612fe5565b60405180910390fd5b6004600083815260200190815260200160002060009054906101000a900473ffffffffffffffffffffffffffffffffffffffff169050919050565b600061073e82610b6b565b90508073ffffffffffffffffffffffffffffffffffffffff168373ffffffffffffffffffffffffffffffffffffffff1614156107af576040517f08c379a00000000000000000000000000000000000000000000000000000000081526004016107a690613045565b60405180910390fd5b8073ffffffffffffffffffffffffffffffffffffffff166107ce6117f8565b73ffffffffffffffffffffffffffffffffffffffff1614806107fd57506107fc816107f76117f8565b611539565b5b61083c576040517f08c379a000000000000000000000000000000000000000000000000000000000815260040161083390612f25565b60405180910390fd5b6108468383611800565b505050565b61085c6108566117f8565b826118b9565b61089b576040517f08c379a000000000000000000000000000000000000000000000000000000000815260040161089290613065565b60405180910390fd5b6108a6838383611997565b505050565b60006009600084815260200190815260200160002090506000821161090757816040517ff9632e860000000000000000000000000000000000000000000000000000000081526004016108fe9190613085565b60405180910390fd5b600073ffffffffffffffffffffffffffffffffffffffff163373ffffffffffffffffffffffffffffffffffffffff16141561097957336040517f5e0288110000000000000000000000000000000000000000000000000000000081526004016109709190612d58565b60405180910390fd5b60008311158015610992575061098f6008611bfe565b83115b156109d457826040517fe4a471820000000000000000000000000000000000000000000000000000000081526004016109cb9190613085565b60405180910390fd5b3373ffffffffffffffffffffffffffffffffffffffff166109f484610b6b565b73ffffffffffffffffffffffffffffffffffffffff1614610a5657610a1883610b6b565b336040517f0f630404000000000000000000000000000000000000000000000000000000008152600401610a4d929190612d73565b60405180910390fd5b8060020160149054906101000a900460ff16610aa957826040517f3711a8e3000000000000000000000000000000000000000000000000000000008152600401610aa09190613085565b60405180910390fd5b60008160020160146101000a81548160ff021916908315150217905550818160010181905550610ad883610b6b565b73ffffffffffffffffffffffffffffffffffffffff167fa9cb07ae72447cfa0fe671d91c771e3d2cd762084933378f7ac782b196f4c7cb82600001548360010154604051610b279291906130a0565b60405180910390a2505050565b610b4f83838360405180602001604052806000815250611385565b505050565b6000600760149054906101000a900460ff16905090565b6000806002600084815260200190815260200160002060009054906101000a900473ffffffffffffffffffffffffffffffffffffffff169050600073ffffffffffffffffffffffffffffffffffffffff168173ffffffffffffffffffffffffffffffffffffffff161415610c14576040517f08c379a0000000000000000000000000000000000000000000000000000000008152600401610c0b90612f65565b60405180910390fd5b80915050919050565b60008073ffffffffffffffffffffffffffffffffffffffff168273ffffffffffffffffffffffffffffffffffffffff161415610c8e576040517f08c379a0000000000000000000000000000000000000000000000000000000008152600401610c8590612f45565b60405180910390fd5b600360008373ffffffffffffffffffffffffffffffffffffffff1673ffffffffffffffffffffffffffffffffffffffff168152602001908152602001600020549050919050565b610cdd6117f8565b73ffffffffffffffffffffffffffffffffffffffff16610cfb6112a7565b73ffffffffffffffffffffffffffffffffffffffff1614610d51576040517f08c379a0000000000000000000000000000000000000000000000000000000008152600401610d4890613005565b60405180910390fd5b610d5b6000611c0c565b565b610d65610b54565b15610da5576040517f08c379a0000000000000000000000000000000000000000000000000000000008152600401610d9c90612f05565b60405180910390fd5b600081111580610dbd5750610dba6008611bfe565b81115b15610dff57806040517fe4a47182000000000000000000000000000000000000000000000000000000008152600401610df69190613085565b60405180910390fd5b6000600960008381526020019081526020016000209050600073ffffffffffffffffffffffffffffffffffffffff163373ffffffffffffffffffffffffffffffffffffffff161415610e8857336040517f5e028811000000000000000000000000000000000000000000000000000000008152600401610e7f9190612d58565b60405180910390fd5b3373ffffffffffffffffffffffffffffffffffffffff16610ea883610b6b565b73ffffffffffffffffffffffffffffffffffffffff161415610f0157336040517f36b1698a000000000000000000000000000000000000000000000000000000008152600401610ef89190612d58565b60405180910390fd5b8060010154341015610f50573481600101546040517fcf479181000000000000000000000000000000000000000000000000000000008152600401610f479291906130a0565b60405180910390fd5b8060020160149054906101000a900460ff1615610fa457816040517fa1eafc86000000000000000000000000000000000000000000000000000000008152600401610f9b9190613085565b60405180910390fd5b6000610faf83610b6b565b9050610fba83610b6b565b73ffffffffffffffffffffffffffffffffffffffff166108fc83600101549081150290604051600060405180830381858888f19350505050158015611003573d6000803e3d6000fd5b5061101381338460000154611997565b60018260020160146101000a81548160ff0219169083151502179055503373ffffffffffffffffffffffffffffffffffffffff168173ffffffffffffffffffffffffffffffffffffffff167f4ebd6ef39c1235e69ba7dedf24ad43bdeb57deb289d98473668070d6ca9b685e846000015485600101546040516110979291906130a0565b60405180910390a3505050565b600073ffffffffffffffffffffffffffffffffffffffff163373ffffffffffffffffffffffffffffffffffffffff16141561111657336040517f5e02881100000000000000000000000000000000000000000000000000000000815260040161110d9190612d58565b60405180910390fd5b6000811161115b57806040517ff9632e860000000000000000000000000000000000000000000000000000000081526004016111529190613085565b60405180910390fd5b6111656008611cd2565b60006111716008611bfe565b905061117d3382611ce8565b6111878184611ec2565b60405180608001604052808281526020018381526020013373ffffffffffffffffffffffffffffffffffffffff1681526020016000151581525060096000838152602001908152602001600020600082015181600001556020820151816001015560408201518160020160006101000a81548173ffffffffffffffffffffffffffffffffffffffff021916908373ffffffffffffffffffffffffffffffffffffffff16021790555060608201518160020160146101000a81548160ff0219169083151502179055509050503373ffffffffffffffffffffffffffffffffffffffff167f1ab3864560512bcd762f59576711bc5e90d3ef93e9253b43cd6be191b4a5814e828460405161129a9291906130a0565b60405180910390a2505050565b6000600760009054906101000a900473ffffffffffffffffffffffffffffffffffffffff16905090565b6060600180546112e09061335b565b80601f016020809104026020016040519081016040528092919081815260200182805461130c9061335b565b80156113595780601f1061132e57610100808354040283529160200191611359565b820191906000526020600020905b81548152906001019060200180831161133c57829003601f168201915b5050505050905090565b61137561136e6117f8565b8383611f36565b5050565b60088060000154905081565b6113966113906117f8565b836118b9565b6113d5576040517f08c379a00000000000000000000000000000000000000000000000000000000081526004016113cc90613065565b60405180910390fd5b6113e1848484846120a3565b50505050565b60606113f28261178c565b611431576040517f08c379a000000000000000000000000000000000000000000000000000000000815260040161142890612fc5565b60405180910390fd5b60006006600084815260200190815260200160002080546114519061335b565b80601f016020809104026020016040519081016040528092919081815260200182805461147d9061335b565b80156114ca5780601f1061149f576101008083540402835291602001916114ca565b820191906000526020600020905b8154815290600101906020018083116114ad57829003601f168201915b5050505050905060006114db6120ff565b90506000815114156114f1578192505050611534565b60008251111561152657808260405160200161150e929190612d34565b60405160208183030381529060405292505050611534565b61152f84612116565b925050505b919050565b6000600560008473ffffffffffffffffffffffffffffffffffffffff1673ffffffffffffffffffffffffffffffffffffffff16815260200190815260200160002060008373ffffffffffffffffffffffffffffffffffffffff1673ffffffffffffffffffffffffffffffffffffffff16815260200190815260200160002060009054906101000a900460ff16905092915050565b6115d56117f8565b73ffffffffffffffffffffffffffffffffffffffff166115f36112a7565b73ffffffffffffffffffffffffffffffffffffffff1614611649576040517f08c379a000000000000000000000000000000000000000000000000000000000815260040161164090613005565b60405180910390fd5b600073ffffffffffffffffffffffffffffffffffffffff168173ffffffffffffffffffffffffffffffffffffffff1614156116b9576040517f08c379a00000000000000000000000000000000000000000000000000000000081526004016116b090612e45565b60405180910390fd5b6116c281611c0c565b50565b60096020528060005260406000206000915090508060000154908060010154908060020160009054906101000a900473ffffffffffffffffffffffffffffffffffffffff16908060020160149054906101000a900460ff16905084565b60007f01ffc9a7000000000000000000000000000000000000000000000000000000007bffffffffffffffffffffffffffffffffffffffffffffffffffffffff1916827bffffffffffffffffffffffffffffffffffffffffffffffffffffffff1916149050919050565b60008073ffffffffffffffffffffffffffffffffffffffff166002600084815260200190815260200160002060009054906101000a900473ffffffffffffffffffffffffffffffffffffffff1673ffffffffffffffffffffffffffffffffffffffff1614159050919050565b600033905090565b816004600083815260200190815260200160002060006101000a81548173ffffffffffffffffffffffffffffffffffffffff021916908373ffffffffffffffffffffffffffffffffffffffff160217905550808273ffffffffffffffffffffffffffffffffffffffff1661187383610b6b565b73ffffffffffffffffffffffffffffffffffffffff167f8c5be1e5ebec7d5bd14f71427d1e84f3dd0314c0f7b2291e5b200ac8c7c3b92560405160405180910390a45050565b60006118c48261178c565b611903576040517f08c379a00000000000000000000000000000000000000000000000000000000081526004016118fa90612ee5565b60405180910390fd5b600061190e83610b6b565b90508073ffffffffffffffffffffffffffffffffffffffff168473ffffffffffffffffffffffffffffffffffffffff16148061197d57508373ffffffffffffffffffffffffffffffffffffffff16611965846106ae565b73ffffffffffffffffffffffffffffffffffffffff16145b8061198e575061198d8185611539565b5b91505092915050565b8273ffffffffffffffffffffffffffffffffffffffff166119b782610b6b565b73ffffffffffffffffffffffffffffffffffffffff1614611a0d576040517f08c379a0000000000000000000000000000000000000000000000000000000008152600401611a0490612e65565b60405180910390fd5b600073ffffffffffffffffffffffffffffffffffffffff168273ffffffffffffffffffffffffffffffffffffffff161415611a7d576040517f08c379a0000000000000000000000000000000000000000000000000000000008152600401611a7490612ea5565b60405180910390fd5b611a888383836121bd565b611a93600082611800565b6001600360008573ffffffffffffffffffffffffffffffffffffffff1673ffffffffffffffffffffffffffffffffffffffff1681526020019081526020016000206000828254611ae3919061325f565b925050819055506001600360008473ffffffffffffffffffffffffffffffffffffffff1673ffffffffffffffffffffffffffffffffffffffff1681526020019081526020016000206000828254611b3a91906131d8565b92505081905550816002600083815260200190815260200160002060006101000a81548173ffffffffffffffffffffffffffffffffffffffff021916908373ffffffffffffffffffffffffffffffffffffffff160217905550808273ffffffffffffffffffffffffffffffffffffffff168473ffffffffffffffffffffffffffffffffffffffff167fddf252ad1be2c89b69c2b068fc378daa952ba7f163c4a11628f55a4df523b3ef60405160405180910390a4611bf98383836121c2565b505050565b600081600001549050919050565b6000600760009054906101000a900473ffffffffffffffffffffffffffffffffffffffff16905081600760006101000a81548173ffffffffffffffffffffffffffffffffffffffff021916908373ffffffffffffffffffffffffffffffffffffffff1602179055508173ffffffffffffffffffffffffffffffffffffffff168173ffffffffffffffffffffffffffffffffffffffff167f8be0079c531659141344cd1fd0a4f28419497f9722a3daafe3b4186f6b6457e060405160405180910390a35050565b6001816000016000828254019250508190555050565b600073ffffffffffffffffffffffffffffffffffffffff168273ffffffffffffffffffffffffffffffffffffffff161415611d58576040517f08c379a0000000000000000000000000000000000000000000000000000000008152600401611d4f90612fa5565b60405180910390fd5b611d618161178c565b15611da1576040517f08c379a0000000000000000000000000000000000000000000000000000000008152600401611d9890612e85565b60405180910390fd5b611dad600083836121bd565b6001600360008473ffffffffffffffffffffffffffffffffffffffff1673ffffffffffffffffffffffffffffffffffffffff1681526020019081526020016000206000828254611dfd91906131d8565b92505081905550816002600083815260200190815260200160002060006101000a81548173ffffffffffffffffffffffffffffffffffffffff021916908373ffffffffffffffffffffffffffffffffffffffff160217905550808273ffffffffffffffffffffffffffffffffffffffff16600073ffffffffffffffffffffffffffffffffffffffff167fddf252ad1be2c89b69c2b068fc378daa952ba7f163c4a11628f55a4df523b3ef60405160405180910390a4611ebe600083836121c2565b5050565b611ecb8261178c565b611f0a576040517f08c379a0000000000000000000000000000000000000000000000000000000008152600401611f0190612f85565b60405180910390fd5b80600660008481526020019081526020016000209080519060200190611f3192919061252e565b505050565b8173ffffffffffffffffffffffffffffffffffffffff168373ffffffffffffffffffffffffffffffffffffffff161415611fa5576040517f08c379a0000000000000000000000000000000000000000000000000000000008152600401611f9c90612ec5565b60405180910390fd5b80600560008573ffffffffffffffffffffffffffffffffffffffff1673ffffffffffffffffffffffffffffffffffffffff16815260200190815260200160002060008473ffffffffffffffffffffffffffffffffffffffff1673ffffffffffffffffffffffffffffffffffffffff16815260200190815260200160002060006101000a81548160ff0219169083151502179055508173ffffffffffffffffffffffffffffffffffffffff168373ffffffffffffffffffffffffffffffffffffffff167f17307eab39ab6107e8899845ad3d59bd9653f200f220920489ca2b5937696c31836040516120969190612de8565b60405180910390a3505050565b6120ae848484611997565b6120ba848484846121c7565b6120f9576040517f08c379a00000000000000000000000000000000000000000000000000000000081526004016120f090612e25565b60405180910390fd5b50505050565b606060405180602001604052806000815250905090565b60606121218261178c565b612160576040517f08c379a000000000000000000000000000000000000000000000000000000000815260040161215790613025565b60405180910390fd5b600061216a6120ff565b9050600081511161218a57604051806020016040528060008152506121b5565b806121948461235e565b6040516020016121a5929190612d34565b6040516020818303038152906040525b915050919050565b505050565b505050565b60006121e88473ffffffffffffffffffffffffffffffffffffffff1661250b565b15612351578373ffffffffffffffffffffffffffffffffffffffff1663150b7a026122116117f8565b8786866040518563ffffffff1660e01b81526004016122339493929190612d9c565b602060405180830381600087803b15801561224d57600080fd5b505af192505050801561227e57506040513d601f19601f8201168201806040525081019061227b91906128da565b60015b612301573d80600081146122ae576040519150601f19603f3d011682016040523d82523d6000602084013e6122b3565b606091505b506000815114156122f9576040517f08c379a00000000000000000000000000000000000000000000000000000000081526004016122f090612e25565b60405180910390fd5b805181602001fd5b63150b7a0260e01b7bffffffffffffffffffffffffffffffffffffffffffffffffffffffff1916817bffffffffffffffffffffffffffffffffffffffffffffffffffffffff191614915050612356565b600190505b949350505050565b606060008214156123a6576040518060400160405280600181526020017f30000000000000000000000000000000000000000000000000000000000000008152509050612506565b600082905060005b600082146123d85780806123c1906133be565b915050600a826123d1919061322e565b91506123ae565b60008167ffffffffffffffff81111561241a577f4e487b7100000000000000000000000000000000000000000000000000000000600052604160045260246000fd5b6040519080825280601f01601f19166020018201604052801561244c5781602001600182028036833780820191505090505b5090505b600085146124ff57600182612465919061325f565b9150600a856124749190613407565b603061248091906131d8565b60f81b8183815181106124bc577f4e487b7100000000000000000000000000000000000000000000000000000000600052603260045260246000fd5b60200101907effffffffffffffffffffffffffffffffffffffffffffffffffffffffffffff1916908160001a905350600a856124f8919061322e565b9450612450565b8093505050505b919050565b6000808273ffffffffffffffffffffffffffffffffffffffff163b119050919050565b82805461253a9061335b565b90600052602060002090601f01602090048101928261255c57600085556125a3565b82601f1061257557805160ff19168380011785556125a3565b828001600101855582156125a3579182015b828111156125a2578251825591602001919060010190612587565b5b5090506125b091906125b4565b5090565b5b808211156125cd5760008160009055506001016125b5565b5090565b60006125e46125df84613133565b61310e565b9050828152602081018484840111156125fc57600080fd5b612607848285613319565b509392505050565b600061262261261d84613164565b61310e565b90508281526020810184848401111561263a57600080fd5b612645848285613319565b509392505050565b60008135905061265c81613a24565b92915050565b60008135905061267181613a3b565b92915050565b60008135905061268681613a52565b92915050565b60008151905061269b81613a52565b92915050565b600082601f8301126126b257600080fd5b81356126c28482602086016125d1565b91505092915050565b600082601f8301126126dc57600080fd5b81356126ec84826020860161260f565b91505092915050565b60008135905061270481613a69565b92915050565b60006020828403121561271c57600080fd5b600061272a8482850161264d565b91505092915050565b6000806040838503121561274657600080fd5b60006127548582860161264d565b92505060206127658582860161264d565b9150509250929050565b60008060006060848603121561278457600080fd5b60006127928682870161264d565b93505060206127a38682870161264d565b92505060406127b4868287016126f5565b9150509250925092565b600080600080608085870312156127d457600080fd5b60006127e28782880161264d565b94505060206127f38782880161264d565b9350506040612804878288016126f5565b925050606085013567ffffffffffffffff81111561282157600080fd5b61282d878288016126a1565b91505092959194509250565b6000806040838503121561284c57600080fd5b600061285a8582860161264d565b925050602061286b85828601612662565b9150509250929050565b6000806040838503121561288857600080fd5b60006128968582860161264d565b92505060206128a7858286016126f5565b9150509250929050565b6000602082840312156128c357600080fd5b60006128d184828501612677565b91505092915050565b6000602082840312156128ec57600080fd5b60006128fa8482850161268c565b91505092915050565b6000806040838503121561291657600080fd5b600083013567ffffffffffffffff81111561293057600080fd5b61293c858286016126cb565b925050602061294d858286016126f5565b9150509250929050565b60006020828403121561296957600080fd5b6000612977848285016126f5565b91505092915050565b6000806040838503121561299357600080fd5b60006129a1858286016126f5565b92505060206129b2858286016126f5565b9150509250929050565b6129c5816132a5565b82525050565b6129d481613293565b82525050565b6129e3816132b7565b82525050565b60006129f482613195565b6129fe81856131ab565b9350612a0e818560208601613328565b612a17816134f4565b840191505092915050565b6000612a2d826131a0565b612a3781856131bc565b9350612a47818560208601613328565b612a50816134f4565b840191505092915050565b6000612a66826131a0565b612a7081856131cd565b9350612a80818560208601613328565b80840191505092915050565b6000612a996032836131bc565b9150612aa482613505565b604082019050919050565b6000612abc6026836131bc565b9150612ac782613554565b604082019050919050565b6000612adf6025836131bc565b9150612aea826135a3565b604082019050919050565b6000612b02601c836131bc565b9150612b0d826135f2565b602082019050919050565b6000612b256024836131bc565b9150612b308261361b565b604082019050919050565b6000612b486019836131bc565b9150612b538261366a565b602082019050919050565b6000612b6b602c836131bc565b9150612b7682613693565b604082019050919050565b6000612b8e6010836131bc565b9150612b99826136e2565b602082019050919050565b6000612bb16038836131bc565b9150612bbc8261370b565b604082019050919050565b6000612bd4602a836131bc565b9150612bdf8261375a565b604082019050919050565b6000612bf76029836131bc565b9150612c02826137a9565b604082019050919050565b6000612c1a602e836131bc565b9150612c25826137f8565b604082019050919050565b6000612c3d6020836131bc565b9150612c4882613847565b602082019050919050565b6000612c606031836131bc565b9150612c6b82613870565b604082019050919050565b6000612c83602c836131bc565b9150612c8e826138bf565b604082019050919050565b6000612ca66020836131bc565b9150612cb18261390e565b602082019050919050565b6000612cc9602f836131bc565b9150612cd482613937565b604082019050919050565b6000612cec6021836131bc565b9150612cf782613986565b604082019050919050565b6000612d0f6031836131bc565b9150612d1a826139d5565b604082019050919050565b612d2e8161330f565b82525050565b6000612d408285612a5b565b9150612d4c8284612a5b565b91508190509392505050565b6000602082019050612d6d60008301846129cb565b92915050565b6000604082019050612d8860008301856129cb565b612d9560208301846129cb565b9392505050565b6000608082019050612db160008301876129cb565b612dbe60208301866129cb565b612dcb6040830185612d25565b8181036060830152612ddd81846129e9565b905095945050505050565b6000602082019050612dfd60008301846129da565b92915050565b60006020820190508181036000830152612e1d8184612a22565b905092915050565b60006020820190508181036000830152612e3e81612a8c565b9050919050565b60006020820190508181036000830152612e5e81612aaf565b9050919050565b60006020820190508181036000830152612e7e81612ad2565b9050919050565b60006020820190508181036000830152612e9e81612af5565b9050919050565b60006020820190508181036000830152612ebe81612b18565b9050919050565b60006020820190508181036000830152612ede81612b3b565b9050919050565b60006020820190508181036000830152612efe81612b5e565b9050919050565b60006020820190508181036000830152612f1e81612b81565b9050919050565b60006020820190508181036000830152612f3e81612ba4565b9050919050565b60006020820190508181036000830152612f5e81612bc7565b9050919050565b60006020820190508181036000830152612f7e81612bea565b9050919050565b60006020820190508181036000830152612f9e81612c0d565b9050919050565b60006020820190508181036000830152612fbe81612c30565b9050919050565b60006020820190508181036000830152612fde81612c53565b9050919050565b60006020820190508181036000830152612ffe81612c76565b9050919050565b6000602082019050818103600083015261301e81612c99565b9050919050565b6000602082019050818103600083015261303e81612cbc565b9050919050565b6000602082019050818103600083015261305e81612cdf565b9050919050565b6000602082019050818103600083015261307e81612d02565b9050919050565b600060208201905061309a6000830184612d25565b92915050565b60006040820190506130b56000830185612d25565b6130c26020830184612d25565b9392505050565b60006080820190506130de6000830187612d25565b6130eb6020830186612d25565b6130f860408301856129bc565b61310560608301846129da565b95945050505050565b6000613118613129565b9050613124828261338d565b919050565b6000604051905090565b600067ffffffffffffffff82111561314e5761314d6134c5565b5b613157826134f4565b9050602081019050919050565b600067ffffffffffffffff82111561317f5761317e6134c5565b5b613188826134f4565b9050602081019050919050565b600081519050919050565b600081519050919050565b600082825260208201905092915050565b600082825260208201905092915050565b600081905092915050565b60006131e38261330f565b91506131ee8361330f565b9250827fffffffffffffffffffffffffffffffffffffffffffffffffffffffffffffffff0382111561322357613222613438565b5b828201905092915050565b60006132398261330f565b91506132448361330f565b92508261325457613253613467565b5b828204905092915050565b600061326a8261330f565b91506132758361330f565b92508282101561328857613287613438565b5b828203905092915050565b600061329e826132ef565b9050919050565b60006132b0826132ef565b9050919050565b60008115159050919050565b60007fffffffff0000000000000000000000000000000000000000000000000000000082169050919050565b600073ffffffffffffffffffffffffffffffffffffffff82169050919050565b6000819050919050565b82818337600083830152505050565b60005b8381101561334657808201518184015260208101905061332b565b83811115613355576000848401525b50505050565b6000600282049050600182168061337357607f821691505b6020821081141561338757613386613496565b5b50919050565b613396826134f4565b810181811067ffffffffffffffff821117156133b5576133b46134c5565b5b80604052505050565b60006133c98261330f565b91507fffffffffffffffffffffffffffffffffffffffffffffffffffffffffffffffff8214156133fc576133fb613438565b5b600182019050919050565b60006134128261330f565b915061341d8361330f565b92508261342d5761342c613467565b5b828206905092915050565b7f4e487b7100000000000000000000000000000000000000000000000000000000600052601160045260246000fd5b7f4e487b7100000000000000000000000000000000000000000000000000000000600052601260045260246000fd5b7f4e487b7100000000000000000000000000000000000000000000000000000000600052602260045260246000fd5b7f4e487b7100000000000000000000000000000000000000000000000000000000600052604160045260246000fd5b6000601f19601f8301169050919050565b7f4552433732313a207472616e7366657220746f206e6f6e20455243373231526560008201527f63656976657220696d706c656d656e7465720000000000000000000000000000602082015250565b7f4f776e61626c653a206e6577206f776e657220697320746865207a65726f206160008201527f6464726573730000000000000000000000000000000000000000000000000000602082015250565b7f4552433732313a207472616e736665722066726f6d20696e636f72726563742060008201527f6f776e6572000000000000000000000000000000000000000000000000000000602082015250565b7f4552433732313a20746f6b656e20616c7265616479206d696e74656400000000600082015250565b7f4552433732313a207472616e7366657220746f20746865207a65726f2061646460008201527f7265737300000000000000000000000000000000000000000000000000000000602082015250565b7f4552433732313a20617070726f766520746f2063616c6c657200000000000000600082015250565b7f4552433732313a206f70657261746f7220717565727920666f72206e6f6e657860008201527f697374656e7420746f6b656e0000000000000000000000000000000000000000602082015250565b7f5061757361626c653a2070617573656400000000000000000000000000000000600082015250565b7f4552433732313a20617070726f76652063616c6c6572206973206e6f74206f7760008201527f6e6572206e6f7220617070726f76656420666f7220616c6c0000000000000000602082015250565b7f4552433732313a2062616c616e636520717565727920666f7220746865207a6560008201527f726f206164647265737300000000000000000000000000000000000000000000602082015250565b7f4552433732313a206f776e657220717565727920666f72206e6f6e657869737460008201527f656e7420746f6b656e0000000000000000000000000000000000000000000000602082015250565b7f45524337323155524953746f726167653a2055524920736574206f66206e6f6e60008201527f6578697374656e7420746f6b656e000000000000000000000000000000000000602082015250565b7f4552433732313a206d696e7420746f20746865207a65726f2061646472657373600082015250565b7f45524337323155524953746f726167653a2055524920717565727920666f722060008201527f6e6f6e6578697374656e7420746f6b656e000000000000000000000000000000602082015250565b7f4552433732313a20617070726f76656420717565727920666f72206e6f6e657860008201527f697374656e7420746f6b656e0000000000000000000000000000000000000000602082015250565b7f4f776e61626c653a2063616c6c6572206973206e6f7420746865206f776e6572600082015250565b7f4552433732314d657461646174613a2055524920717565727920666f72206e6f60008201527f6e6578697374656e7420746f6b656e0000000000000000000000000000000000602082015250565b7f4552433732313a20617070726f76616c20746f2063757272656e74206f776e6560008201527f7200000000000000000000000000000000000000000000000000000000000000602082015250565b7f4552433732313a207472616e736665722063616c6c6572206973206e6f74206f60008201527f776e6572206e6f7220617070726f766564000000000000000000000000000000602082015250565b613a2d81613293565b8114613a3857600080fd5b50565b613a44816132b7565b8114613a4f57600080fd5b50565b613a5b816132c3565b8114613a6657600080fd5b50565b613a728161330f565b8114613a7d57600080fd5b5056fea26469706673582212209353a55f8f71b10410f89472b2df979715e3808cd7801c604cbeede3bb962a8e64736f6c63430008040033",
  "linkReferences": {},
  "deployedLinkReferences": {}
}